{
  "_format": "hh-sol-artifact-1",
  "contractName": "WavePortal",
  "sourceName": "contracts/WavePortal.sol",
  "abi": [
    {
      "inputs": [],
      "stateMutability": "nonpayable",
      "type": "constructor"
    },
    {
      "inputs": [],
      "name": "getTotalWaves",
      "outputs": [
        {
          "internalType": "uint256",
          "name": "",
          "type": "uint256"
        }
      ],
      "stateMutability": "view",
      "type": "function"
    },
    {
      "inputs": [],
      "name": "totalWaves",
      "outputs": [
        {
          "internalType": "uint256",
          "name": "",
          "type": "uint256"
        }
      ],
      "stateMutability": "view",
      "type": "function"
    },
    {
      "inputs": [],
      "name": "wave",
      "outputs": [],
      "stateMutability": "nonpayable",
      "type": "function"
    }
  ],
  "bytecode": "0x608060405234801561001057600080fd5b5061003c6040518060600160405280602c8152602001610740602c913961004160201b6101351760201c565b6101c4565b6100dd816040516024016100559190610142565b6040516020818303038152906040527f41304fac000000000000000000000000000000000000000000000000000000007bffffffffffffffffffffffffffffffffffffffffffffffffffffffff19166020820180517bffffffffffffffffffffffffffffffffffffffffffffffffffffffff83818316178352505050506100e060201b60201c565b50565b60008151905060006a636f6e736f6c652e6c6f679050602083016000808483855afa5050505050565b600061011482610164565b61011e818561016f565b935061012e818560208601610180565b610137816101b3565b840191505092915050565b6000602082019050818103600083015261015c8184610109565b905092915050565b600081519050919050565b600082825260208201905092915050565b60005b8381101561019e578082015181840152602081019050610183565b838111156101ad576000848401525b50505050565b6000601f19601f8301169050919050565b61056d806101d36000396000f3fe608060405234801561001057600080fd5b50600436106100415760003560e01c8063291bcab3146100465780636fe15b44146100645780639a2cdc081461006e575b600080fd5b61004e61008c565b60405161005b9190610408565b60405180910390f35b61006c610092565b005b6100766100ea565b6040516100839190610408565b60405180910390f35b60005481565b6000808154809291906100a4906104ae565b91905055506100e86040518060400160405280600c81526020017f2573206861732077617665640000000000000000000000000000000000000000815250336101ce565b565b600061012d6040518060400160405280601681526020017f7765206861766520256420746f74616c2077617665730000000000000000000081525060005461026a565b600054905090565b6101cb816040516024016101499190610386565b6040516020818303038152906040527f41304fac000000000000000000000000000000000000000000000000000000007bffffffffffffffffffffffffffffffffffffffffffffffffffffffff19166020820180517bffffffffffffffffffffffffffffffffffffffffffffffffffffffff8381831617835250505050610306565b50565b61026682826040516024016101e49291906103a8565b6040516020818303038152906040527f319af333000000000000000000000000000000000000000000000000000000007bffffffffffffffffffffffffffffffffffffffffffffffffffffffff19166020820180517bffffffffffffffffffffffffffffffffffffffffffffffffffffffff8381831617835250505050610306565b5050565b61030282826040516024016102809291906103d8565b6040516020818303038152906040527f9710a9d0000000000000000000000000000000000000000000000000000000007bffffffffffffffffffffffffffffffffffffffffffffffffffffffff19166020820180517bffffffffffffffffffffffffffffffffffffffffffffffffffffffff8381831617835250505050610306565b5050565b60008151905060006a636f6e736f6c652e6c6f679050602083016000808483855afa5050505050565b6103388161043f565b82525050565b600061034982610423565b610353818561042e565b935061036381856020860161047b565b61036c81610526565b840191505092915050565b61038081610471565b82525050565b600060208201905081810360008301526103a0818461033e565b905092915050565b600060408201905081810360008301526103c2818561033e565b90506103d1602083018461032f565b9392505050565b600060408201905081810360008301526103f2818561033e565b90506104016020830184610377565b9392505050565b600060208201905061041d6000830184610377565b92915050565b600081519050919050565b600082825260208201905092915050565b600061044a82610451565b9050919050565b600073ffffffffffffffffffffffffffffffffffffffff82169050919050565b6000819050919050565b60005b8381101561049957808201518184015260208101905061047e565b838111156104a8576000848401525b50505050565b60006104b982610471565b91507fffffffffffffffffffffffffffffffffffffffffffffffffffffffffffffffff8214156104ec576104eb6104f7565b5b600182019050919050565b7f4e487b7100000000000000000000000000000000000000000000000000000000600052601160045260246000fd5b6000601f19601f830116905091905056fea26469706673582212203c96e6cb94ee0d42b20085cb01020b79f72ae54c4d1f513c48bf0413b566d62f64736f6c63430008040033596f6f6f6f6f6f6f6f6f6f212c204920616d206120636f6e747261637420616e64204920616d20736d617274",
  "linkReferences": {},
  "deployedLinkReferences": {}
}